{
  "contractName": "Healthrecords",
  "abi": [
    {
      "constant": true,
      "inputs": [],
      "name": "getBloodgroup",
      "outputs": [
        {
          "internalType": "string",
          "name": "",
          "type": "string"
        }
      ],
      "payable": false,
      "stateMutability": "view",
      "type": "function"
    },
    {
      "constant": true,
      "inputs": [],
      "name": "getDisease",
      "outputs": [
        {
          "internalType": "string",
          "name": "",
          "type": "string"
        }
      ],
      "payable": false,
      "stateMutability": "view",
      "type": "function"
    },
    {
      "constant": true,
      "inputs": [],
      "name": "getMedication",
      "outputs": [
        {
          "internalType": "string",
          "name": "",
          "type": "string"
        }
      ],
      "payable": false,
      "stateMutability": "view",
      "type": "function"
    },
    {
      "constant": true,
      "inputs": [],
      "name": "getAllergy",
      "outputs": [
        {
          "internalType": "string",
          "name": "",
          "type": "string"
        }
      ],
      "payable": false,
      "stateMutability": "view",
      "type": "function"
    },
    {
      "constant": true,
      "inputs": [],
      "name": "getWeight",
      "outputs": [
        {
          "internalType": "string",
          "name": "",
          "type": "string"
        }
      ],
      "payable": false,
      "stateMutability": "view",
      "type": "function"
    },
    {
      "constant": true,
      "inputs": [],
      "name": "getHeight",
      "outputs": [
        {
          "internalType": "string",
          "name": "",
          "type": "string"
        }
      ],
      "payable": false,
      "stateMutability": "view",
      "type": "function"
    },
    {
      "constant": true,
      "inputs": [],
      "name": "getAge",
      "outputs": [
        {
          "internalType": "string",
          "name": "",
          "type": "string"
        }
      ],
      "payable": false,
      "stateMutability": "view",
      "type": "function"
    },
    {
      "constant": false,
      "inputs": [
        {
          "internalType": "string",
          "name": "nbloodgroup",
          "type": "string"
        }
      ],
      "name": "setBloodgroup",
      "outputs": [],
      "payable": false,
      "stateMutability": "nonpayable",
      "type": "function"
    },
    {
      "constant": false,
      "inputs": [
        {
          "internalType": "string",
          "name": "ndiseases",
          "type": "string"
        }
      ],
      "name": "setDisease",
      "outputs": [],
      "payable": false,
      "stateMutability": "nonpayable",
      "type": "function"
    },
    {
      "constant": false,
      "inputs": [
        {
          "internalType": "string",
          "name": "nmedication",
          "type": "string"
        }
      ],
      "name": "setMedication",
      "outputs": [],
      "payable": false,
      "stateMutability": "nonpayable",
      "type": "function"
    },
    {
      "constant": false,
      "inputs": [
        {
          "internalType": "string",
          "name": "nallergies",
          "type": "string"
        }
      ],
      "name": "setAllergy",
      "outputs": [],
      "payable": false,
      "stateMutability": "nonpayable",
      "type": "function"
    },
    {
      "constant": false,
      "inputs": [
        {
          "internalType": "string",
          "name": "nweight",
          "type": "string"
        }
      ],
      "name": "setWeight",
      "outputs": [],
      "payable": false,
      "stateMutability": "nonpayable",
      "type": "function"
    },
    {
      "constant": false,
      "inputs": [
        {
          "internalType": "string",
          "name": "nheight",
          "type": "string"
        }
      ],
      "name": "setHeight",
      "outputs": [],
      "payable": false,
      "stateMutability": "nonpayable",
      "type": "function"
    },
    {
      "constant": false,
      "inputs": [
        {
          "internalType": "string",
          "name": "nage",
          "type": "string"
        }
      ],
      "name": "setAge",
      "outputs": [],
      "payable": false,
      "stateMutability": "nonpayable",
      "type": "function"
    }
  ],
  "bytecode": "0x60806040526040518060400160405280600481526020017f4e6f6e650000000000000000000000000000000000000000000000000000000081525060009080519060200190620000519291906200023a565b506040518060400160405280600481526020017f4e6f6e6500000000000000000000000000000000000000000000000000000000815250600190805190602001906200009f9291906200023a565b506040518060400160405280600481526020017f4e6f6e650000000000000000000000000000000000000000000000000000000081525060029080519060200190620000ed9291906200023a565b506040518060400160405280600481526020017f4e6f6e6500000000000000000000000000000000000000000000000000000000815250600390805190602001906200013b9291906200023a565b506040518060400160405280600481526020017f4e6f6e650000000000000000000000000000000000000000000000000000000081525060049080519060200190620001899291906200023a565b506040518060400160405280600481526020017f4e6f6e650000000000000000000000000000000000000000000000000000000081525060059080519060200190620001d79291906200023a565b506040518060400160405280600481526020017f4e6f6e650000000000000000000000000000000000000000000000000000000081525060069080519060200190620002259291906200023a565b503480156200023357600080fd5b50620002e9565b828054600181600116156101000203166002900490600052602060002090601f016020900481019282601f106200027d57805160ff1916838001178555620002ae565b82800160010185558215620002ae579182015b82811115620002ad57825182559160200191906001019062000290565b5b509050620002bd9190620002c1565b5090565b620002e691905b80821115620002e2576000816000905550600101620002c8565b5090565b90565b610db580620002f96000396000f3fe608060405234801561001057600080fd5b50600436106100ea5760003560e01c8063b02a265d1161008c578063e9b75a7611610066578063e9b75a76146105e5578063f8033d6a1461065e578063fc3de41d146106d7578063ff4faae414610750576100ea565b8063b02a265d14610470578063d96e3b0f146104e9578063e447829d1461056c576100ea565b806340eea62d116100c857806340eea62d1461026e5780637eaf692f146102e7578063967e6e651461036a578063a9b4b780146103ed576100ea565b806319efb11d146100ef5780631df3403f146101725780631fc6ecec146101eb575b600080fd5b6100f76107d3565b6040518080602001828103825283818151815260200191508051906020019080838360005b8381101561013757808201518184015260208101905061011c565b50505050905090810190601f1680156101645780820380516001836020036101000a031916815260200191505b509250505060405180910390f35b6101e96004803603602081101561018857600080fd5b81019080803590602001906401000000008111156101a557600080fd5b8201836020820111156101b757600080fd5b803590602001918460018302840111640100000000831117156101d957600080fd5b9091929391929390505050610875565b005b6101f361088b565b6040518080602001828103825283818151815260200191508051906020019080838360005b83811015610233578082015181840152602081019050610218565b50505050905090810190601f1680156102605780820380516001836020036101000a031916815260200191505b509250505060405180910390f35b6102e56004803603602081101561028457600080fd5b81019080803590602001906401000000008111156102a157600080fd5b8201836020820111156102b357600080fd5b803590602001918460018302840111640100000000831117156102d557600080fd5b909192939192939050505061092d565b005b6102ef610943565b6040518080602001828103825283818151815260200191508051906020019080838360005b8381101561032f578082015181840152602081019050610314565b50505050905090810190601f16801561035c5780820380516001836020036101000a031916815260200191505b509250505060405180910390f35b6103726109e5565b6040518080602001828103825283818151815260200191508051906020019080838360005b838110156103b2578082015181840152602081019050610397565b50505050905090810190601f1680156103df5780820380516001836020036101000a031916815260200191505b509250505060405180910390f35b6103f5610a87565b6040518080602001828103825283818151815260200191508051906020019080838360005b8381101561043557808201518184015260208101905061041a565b50505050905090810190601f1680156104625780820380516001836020036101000a031916815260200191505b509250505060405180910390f35b6104e76004803603602081101561048657600080fd5b81019080803590602001906401000000008111156104a357600080fd5b8201836020820111156104b557600080fd5b803590602001918460018302840111640100000000831117156104d757600080fd5b9091929391929390505050610b29565b005b6104f1610b3f565b6040518080602001828103825283818151815260200191508051906020019080838360005b83811015610531578082015181840152602081019050610516565b50505050905090810190601f16801561055e5780820380516001836020036101000a031916815260200191505b509250505060405180910390f35b6105e36004803603602081101561058257600080fd5b810190808035906020019064010000000081111561059f57600080fd5b8201836020820111156105b157600080fd5b803590602001918460018302840111640100000000831117156105d357600080fd5b9091929391929390505050610be1565b005b61065c600480360360208110156105fb57600080fd5b810190808035906020019064010000000081111561061857600080fd5b82018360208201111561062a57600080fd5b8035906020019184600183028401116401000000008311171561064c57600080fd5b9091929391929390505050610bf7565b005b6106d56004803603602081101561067457600080fd5b810190808035906020019064010000000081111561069157600080fd5b8201836020820111156106a357600080fd5b803590602001918460018302840111640100000000831117156106c557600080fd5b9091929391929390505050610c0d565b005b61074e600480360360208110156106ed57600080fd5b810190808035906020019064010000000081111561070a57600080fd5b82018360208201111561071c57600080fd5b8035906020019184600183028401116401000000008311171561073e57600080fd5b9091929391929390505050610c23565b005b610758610c39565b6040518080602001828103825283818151815260200191508051906020019080838360005b8381101561079857808201518184015260208101905061077d565b50505050905090810190601f1680156107c55780820380516001836020036101000a031916815260200191505b509250505060405180910390f35b606060058054600181600116156101000203166002900480601f01602080910402602001604051908101604052809291908181526020018280546001816001161561010002031660029004801561086b5780601f106108405761010080835404028352916020019161086b565b820191906000526020600020905b81548152906001019060200180831161084e57829003601f168201915b5050505050905090565b818160029190610886929190610cdb565b505050565b606060038054600181600116156101000203166002900480601f0160208091040260200160405190810160405280929190818152602001828054600181600116156101000203166002900480156109235780601f106108f857610100808354040283529160200191610923565b820191906000526020600020905b81548152906001019060200180831161090657829003601f168201915b5050505050905090565b81816005919061093e929190610cdb565b505050565b606060008054600181600116156101000203166002900480601f0160208091040260200160405190810160405280929190818152602001828054600181600116156101000203166002900480156109db5780601f106109b0576101008083540402835291602001916109db565b820191906000526020600020905b8154815290600101906020018083116109be57829003601f168201915b5050505050905090565b606060068054600181600116156101000203166002900480601f016020809104026020016040519081016040528092919081815260200182805460018160011615610100020316600290048015610a7d5780601f10610a5257610100808354040283529160200191610a7d565b820191906000526020600020905b815481529060010190602001808311610a6057829003601f168201915b5050505050905090565b606060048054600181600116156101000203166002900480601f016020809104026020016040519081016040528092919081815260200182805460018160011615610100020316600290048015610b1f5780601f10610af457610100808354040283529160200191610b1f565b820191906000526020600020905b815481529060010190602001808311610b0257829003601f168201915b5050505050905090565b818160039190610b3a929190610cdb565b505050565b606060028054600181600116156101000203166002900480601f016020809104026020016040519081016040528092919081815260200182805460018160011615610100020316600290048015610bd75780601f10610bac57610100808354040283529160200191610bd7565b820191906000526020600020905b815481529060010190602001808311610bba57829003601f168201915b5050505050905090565b818160049190610bf2929190610cdb565b505050565b818160009190610c08929190610cdb565b505050565b818160069190610c1e929190610cdb565b505050565b818160019190610c34929190610cdb565b505050565b606060018054600181600116156101000203166002900480601f016020809104026020016040519081016040528092919081815260200182805460018160011615610100020316600290048015610cd15780601f10610ca657610100808354040283529160200191610cd1565b820191906000526020600020905b815481529060010190602001808311610cb457829003601f168201915b5050505050905090565b828054600181600116156101000203166002900490600052602060002090601f016020900481019282601f10610d1c57803560ff1916838001178555610d4a565b82800160010185558215610d4a579182015b82811115610d49578235825591602001919060010190610d2e565b5b509050610d579190610d5b565b5090565b610d7d91905b80821115610d79576000816000905550600101610d61565b5090565b9056fea265627a7a72315820005e9b52cfd0d633577292f6213d37895db22da18f6677693355de6d74cb148264736f6c63430005100032",
  "source": "// This statement specifies the compatible compiler versions\npragma solidity >=0.5.0;\n\n// Declare a contract called HelloWorld\ncontract Healthrecords {\n    // Define a string called name, initialize it to 'Celo'\n    string bloodgroup = \"None\";\n    string diseases = \"None\";\n    string medications = \"None\";\n    string allergies = \"None\";\n    string weight = \"None\";\n    string height = \"None\";\n    string age = \"None\";\n\n    // Declares a function called getName\n    // The 'public' label means the function can be called internally, by transactions or other contracts\n    // The 'view' label indicates that the function does not change the state of the contract\n    // The function returns a string, from the memory data location\n\n    function getBloodgroup() public view returns (string memory) {\n        // Return the storage variable 'name'\n        return bloodgroup;\n    }\n\n    function getDisease() public view returns (string memory) {\n        // Return the storage variable 'name'\n        return diseases;\n    }\n\n    function getMedication() public view returns (string memory) {\n        // Return the storage variable 'name'\n        return medications;\n    }\n\n    function getAllergy() public view returns (string memory) {\n        // Return the storage variable 'name'\n        return allergies;\n    }\n\n    function getWeight() public view returns (string memory) {\n        // Return the storage variable 'name'\n        return weight;\n    }\n\n    function getHeight() public view returns (string memory) {\n        // Return the storage variable 'name'\n        return height;\n    }\n\n    function getAge() public view returns (string memory) {\n        // Return the storage variable 'name'\n        return age;\n    }\n\n    // Declare a function called setName\n    // The function takes 1 parameter, a string, called newName, with the calldata data location in the Ethereum Virtual Machine\n    // The 'external' label means the function can only be called from an external source\n    // function setBloodgroup(\n    //     string calldata nbloodgroup,\n    //     string calldata ndiseases,\n    //     string calldata nmedications,\n    //     string calldata nallergies,\n    //     uint256 nweight,\n    //     uint256 nheight,\n    //     uint256 nage\n    // ) external {\n    //     // Set the storage variable, name, to the value passed in as newName\n    //     bloodgroup = nbloodgroup;\n    //     diseases = ndiseases;\n    //     medications = nmedications;\n    //     allergies = nallergies;\n    //     weight = nweight;\n    //     height = nheight;\n    //     age = nage;\n    // }\n\n    function setBloodgroup(string calldata nbloodgroup) external {\n        bloodgroup = nbloodgroup;\n    }\n\n    function setDisease(string calldata ndiseases) external {\n        diseases = ndiseases;\n    }\n\n    function setMedication(string calldata nmedication) external {\n        medications = nmedication;\n    }\n\n    function setAllergy(string calldata nallergies) external {\n        allergies = nallergies;\n    }\n\n    function setWeight(string calldata nweight) external {\n        weight = nweight;\n    }\n\n    function setHeight(string calldata nheight) external {\n        height = nheight;\n    }\n\n    function setAge(string calldata nage) external {\n        age = nage;\n    }\n}\n",
  "sourcePath": "C:/Users/dell/Desktop/celo/healthrecords/contracts/Healthrecords.sol",
  "compiler": {
    "name": "solc",
    "version": "0.5.16+commit.9c3226ce.Emscripten.clang"
  },
  "schemaVersion": "3.4.1",
  "updatedAt": "2021-06-21T10:36:07.863Z",
  "networkType": "ethereum",
  "devdoc": {
    "methods": {}
  },
  "userdoc": {
    "methods": {}
  }
}