{
  "contractName": "Healthrecords",
  "abi": [
    {
      "constant": true,
      "inputs": [],
      "name": "getBloodgroup",
      "outputs": [
        {
          "internalType": "string",
          "name": "",
          "type": "string"
        }
      ],
      "payable": false,
      "stateMutability": "view",
      "type": "function"
    },
    {
      "constant": true,
      "inputs": [],
      "name": "getDisease",
      "outputs": [
        {
          "internalType": "string",
          "name": "",
          "type": "string"
        }
      ],
      "payable": false,
      "stateMutability": "view",
      "type": "function"
    },
    {
      "constant": true,
      "inputs": [],
      "name": "getMedication",
      "outputs": [
        {
          "internalType": "string",
          "name": "",
          "type": "string"
        }
      ],
      "payable": false,
      "stateMutability": "view",
      "type": "function"
    },
    {
      "constant": true,
      "inputs": [],
      "name": "getAllergy",
      "outputs": [
        {
          "internalType": "string",
          "name": "",
          "type": "string"
        }
      ],
      "payable": false,
      "stateMutability": "view",
      "type": "function"
    },
    {
      "constant": true,
      "inputs": [],
      "name": "getWeight",
      "outputs": [
        {
          "internalType": "uint256",
          "name": "",
          "type": "uint256"
        }
      ],
      "payable": false,
      "stateMutability": "view",
      "type": "function"
    },
    {
      "constant": true,
      "inputs": [],
      "name": "getHeight",
      "outputs": [
        {
          "internalType": "uint256",
          "name": "",
          "type": "uint256"
        }
      ],
      "payable": false,
      "stateMutability": "view",
      "type": "function"
    },
    {
      "constant": true,
      "inputs": [],
      "name": "getAge",
      "outputs": [
        {
          "internalType": "uint256",
          "name": "",
          "type": "uint256"
        }
      ],
      "payable": false,
      "stateMutability": "view",
      "type": "function"
    },
    {
      "constant": true,
      "inputs": [],
      "name": "getInsurance",
      "outputs": [
        {
          "internalType": "uint256",
          "name": "",
          "type": "uint256"
        }
      ],
      "payable": false,
      "stateMutability": "view",
      "type": "function"
    },
    {
      "constant": false,
      "inputs": [
        {
          "internalType": "string",
          "name": "nbloodgroup",
          "type": "string"
        }
      ],
      "name": "setBloodgroup",
      "outputs": [],
      "payable": false,
      "stateMutability": "nonpayable",
      "type": "function"
    },
    {
      "constant": false,
      "inputs": [
        {
          "internalType": "string",
          "name": "ndiseases",
          "type": "string"
        }
      ],
      "name": "setDisease",
      "outputs": [],
      "payable": false,
      "stateMutability": "nonpayable",
      "type": "function"
    },
    {
      "constant": false,
      "inputs": [
        {
          "internalType": "string",
          "name": "nmedication",
          "type": "string"
        }
      ],
      "name": "setMedication",
      "outputs": [],
      "payable": false,
      "stateMutability": "nonpayable",
      "type": "function"
    },
    {
      "constant": false,
      "inputs": [
        {
          "internalType": "string",
          "name": "nallergies",
          "type": "string"
        }
      ],
      "name": "setAllergy",
      "outputs": [],
      "payable": false,
      "stateMutability": "nonpayable",
      "type": "function"
    },
    {
      "constant": false,
      "inputs": [
        {
          "internalType": "uint256",
          "name": "nweight",
          "type": "uint256"
        }
      ],
      "name": "setWeight",
      "outputs": [],
      "payable": false,
      "stateMutability": "nonpayable",
      "type": "function"
    },
    {
      "constant": false,
      "inputs": [
        {
          "internalType": "uint256",
          "name": "nheight",
          "type": "uint256"
        }
      ],
      "name": "setHeight",
      "outputs": [],
      "payable": false,
      "stateMutability": "nonpayable",
      "type": "function"
    },
    {
      "constant": false,
      "inputs": [
        {
          "internalType": "uint256",
          "name": "nage",
          "type": "uint256"
        }
      ],
      "name": "setAge",
      "outputs": [],
      "payable": false,
      "stateMutability": "nonpayable",
      "type": "function"
    },
    {
      "constant": false,
      "inputs": [],
      "name": "setInsurance",
      "outputs": [],
      "payable": false,
      "stateMutability": "nonpayable",
      "type": "function"
    }
  ],
  "bytecode": "0x60806040526040518060400160405280600481526020017f4e6f6e65000000000000000000000000000000000000000000000000000000008152506000908051906020019061004f92919061015a565b506040518060400160405280600481526020017f4e6f6e65000000000000000000000000000000000000000000000000000000008152506001908051906020019061009b92919061015a565b506040518060400160405280600481526020017f4e6f6e6500000000000000000000000000000000000000000000000000000000815250600290805190602001906100e792919061015a565b506040518060400160405280600481526020017f4e6f6e65000000000000000000000000000000000000000000000000000000008152506003908051906020019061013392919061015a565b50600060045560006005556000600655600060075534801561015457600080fd5b506101ff565b828054600181600116156101000203166002900490600052602060002090601f016020900481019282601f1061019b57805160ff19168380011785556101c9565b828001600101855582156101c9579182015b828111156101c85782518255916020019190600101906101ad565b5b5090506101d691906101da565b5090565b6101fc91905b808211156101f85760008160009055506001016101e0565b5090565b90565b610a728061020e6000396000f3fe608060405234801561001057600080fd5b50600436106101005760003560e01c8063a9b4b78011610097578063e9b75a7611610066578063e9b75a761461045e578063fc1711f2146104d7578063fc3de41d14610505578063ff4faae41461057e57610100565b8063a9b4b78014610316578063b02a265d14610334578063d5dcf127146103ad578063d96e3b0f146103db57610100565b8063741a3944116100d3578063741a39441461023d5780637b098ed61461026b5780637eaf692f14610275578063967e6e65146102f857610100565b806319efb11d146101055780631df3403f146101235780631fc6ecec1461019c578063267a8da01461021f575b600080fd5b61010d610601565b6040518082815260200191505060405180910390f35b61019a6004803603602081101561013957600080fd5b810190808035906020019064010000000081111561015657600080fd5b82018360208201111561016857600080fd5b8035906020019184600183028401116401000000008311171561018a57600080fd5b909192939192939050505061060b565b005b6101a4610621565b6040518080602001828103825283818151815260200191508051906020019080838360005b838110156101e45780820151818401526020810190506101c9565b50505050905090810190601f1680156102115780820380516001836020036101000a031916815260200191505b509250505060405180910390f35b6102276106c3565b6040518082815260200191505060405180910390f35b6102696004803603602081101561025357600080fd5b81019080803590602001909291905050506106cd565b005b6102736106d7565b005b61027d610748565b6040518080602001828103825283818151815260200191508051906020019080838360005b838110156102bd5780820151818401526020810190506102a2565b50505050905090810190601f1680156102ea5780820380516001836020036101000a031916815260200191505b509250505060405180910390f35b6103006107ea565b6040518082815260200191505060405180910390f35b61031e6107f4565b6040518082815260200191505060405180910390f35b6103ab6004803603602081101561034a57600080fd5b810190808035906020019064010000000081111561036757600080fd5b82018360208201111561037957600080fd5b8035906020019184600183028401116401000000008311171561039b57600080fd5b90919293919293905050506107fe565b005b6103d9600480360360208110156103c357600080fd5b8101908080359060200190929190505050610814565b005b6103e361081e565b6040518080602001828103825283818151815260200191508051906020019080838360005b83811015610423578082015181840152602081019050610408565b50505050905090810190601f1680156104505780820380516001836020036101000a031916815260200191505b509250505060405180910390f35b6104d56004803603602081101561047457600080fd5b810190808035906020019064010000000081111561049157600080fd5b8201836020820111156104a357600080fd5b803590602001918460018302840111640100000000831117156104c557600080fd5b90919293919293905050506108c0565b005b610503600480360360208110156104ed57600080fd5b81019080803590602001909291905050506108d6565b005b61057c6004803603602081101561051b57600080fd5b810190808035906020019064010000000081111561053857600080fd5b82018360208201111561054a57600080fd5b8035906020019184600183028401116401000000008311171561056c57600080fd5b90919293919293905050506108e0565b005b6105866108f6565b6040518080602001828103825283818151815260200191508051906020019080838360005b838110156105c65780820151818401526020810190506105ab565b50505050905090810190601f1680156105f35780820380516001836020036101000a031916815260200191505b509250505060405180910390f35b6000600554905090565b81816002919061061c929190610998565b505050565b606060038054600181600116156101000203166002900480601f0160208091040260200160405190810160405280929190818152602001828054600181600116156101000203166002900480156106b95780601f1061068e576101008083540402835291602001916106b9565b820191906000526020600020905b81548152906001019060200180831161069c57829003601f168201915b5050505050905090565b6000600754905090565b8060058190555050565b601260065410156106ef576002600781905550610746565b601260065411801561070357506019600654105b15610715576005600781905550610745565b60196006541180156107295750602d600654105b1561073b57600a600781905550610744565b600f6007819055505b5b5b565b606060008054600181600116156101000203166002900480601f0160208091040260200160405190810160405280929190818152602001828054600181600116156101000203166002900480156107e05780601f106107b5576101008083540402835291602001916107e0565b820191906000526020600020905b8154815290600101906020018083116107c357829003601f168201915b5050505050905090565b6000600654905090565b6000600454905090565b81816003919061080f929190610998565b505050565b8060068190555050565b606060028054600181600116156101000203166002900480601f0160208091040260200160405190810160405280929190818152602001828054600181600116156101000203166002900480156108b65780601f1061088b576101008083540402835291602001916108b6565b820191906000526020600020905b81548152906001019060200180831161089957829003601f168201915b5050505050905090565b8181600091906108d1929190610998565b505050565b8060048190555050565b8181600191906108f1929190610998565b505050565b606060018054600181600116156101000203166002900480601f01602080910402602001604051908101604052809291908181526020018280546001816001161561010002031660029004801561098e5780601f106109635761010080835404028352916020019161098e565b820191906000526020600020905b81548152906001019060200180831161097157829003601f168201915b5050505050905090565b828054600181600116156101000203166002900490600052602060002090601f016020900481019282601f106109d957803560ff1916838001178555610a07565b82800160010185558215610a07579182015b82811115610a065782358255916020019190600101906109eb565b5b509050610a149190610a18565b5090565b610a3a91905b80821115610a36576000816000905550600101610a1e565b5090565b9056fea265627a7a723158208321556fbd40235faf9c9f707f0730931bd6c93f75d9441653ae7741c8dc9ed564736f6c63430005100032",
  "source": "// This statement specifies the compatible compiler versions\npragma solidity >=0.5.0;\n\n\n// Declare a contract \ncontract Healthrecords {\n    string bloodgroup = \"None\";\n    string diseases = \"None\";\n    string medications = \"None\";\n    string allergies = \"None\";\n    uint weight = 0;\n    uint height = 0;\n    uint age = 0;\n    uint insurance = 0;\n    \n\n    // Declares a function called getName\n    // The 'public' label means the function can be called internally, by transactions or other contracts\n    // The 'view' label indicates that the function does not change the state of the contract\n    // The function returns a string, from the memory data location\n\n    function getBloodgroup() public view returns (string memory) {\n        return bloodgroup;\n    }\n\n    function getDisease() public view returns (string memory) {\n        return diseases;\n    }\n\n    function getMedication() public view returns (string memory) {\n        return medications;\n    }\n\n    function getAllergy() public view returns (string memory) {\n        return allergies;\n    }\n\n    function getWeight() public view returns (uint) {\n        return weight;\n    }\n\n    function getHeight() public view returns (uint) {\n        return height;\n    }\n\n    function getAge() public view returns (uint) {\n        return age;\n    }\n\n    function getInsurance() public view returns (uint) {\n        return insurance;\n    }\n\n    function setBloodgroup(string calldata nbloodgroup) external {\n        bloodgroup = nbloodgroup;\n    }\n\n    function setDisease(string calldata ndiseases) external {\n        diseases = ndiseases;\n    }\n\n    function setMedication(string calldata nmedication) external {\n        medications = nmedication;\n    }\n\n    function setAllergy(string calldata nallergies) external {\n        allergies = nallergies;\n    }\n\n    function setWeight(uint nweight) external {\n        weight = nweight;\n    }\n\n    function setHeight(uint nheight) external {\n        height = nheight;\n    }\n\n    function setAge(uint nage) external {\n        age = nage;\n    }\n\n    function setInsurance() external {\n        if (age < 18){\n            insurance = 2;\n        }\n        else if (age > 18 && age < 25){\n            insurance = 5;\n        }\n        else if (age > 25 && age < 45){\n            insurance = 10;\n        }\n        else {\n            insurance = 15;\n        }\n\n    }\n\n\n}\n",
  "sourcePath": "C:/Users/dell/Desktop/Celo-Health-Records/contracts/Healthrecords.sol",
  "compiler": {
    "name": "solc",
    "version": "0.5.16+commit.9c3226ce.Emscripten.clang"
  },
  "schemaVersion": "3.4.1",
  "updatedAt": "2021-06-27T14:17:16.175Z",
  "networkType": "ethereum",
  "devdoc": {
    "methods": {}
  },
  "userdoc": {
    "methods": {}
  }
}